{
  "abi": [
    {
      "inputs": [],
      "name": "a",
      "outputs": [
        {
          "internalType": "uint256",
          "name": "",
          "type": "uint256"
        }
      ],
      "stateMutability": "view",
      "type": "function"
    },
    {
      "inputs": [],
      "name": "curhash",
      "outputs": [
        {
          "internalType": "bytes32",
          "name": "",
          "type": "bytes32"
        }
      ],
      "stateMutability": "view",
      "type": "function"
    },
    {
      "inputs": [],
      "name": "curnum",
      "outputs": [
        {
          "internalType": "uint256",
          "name": "",
          "type": "uint256"
        }
      ],
      "stateMutability": "view",
      "type": "function"
    },
    {
      "inputs": [],
      "name": "gen",
      "outputs": [],
      "stateMutability": "nonpayable",
      "type": "function"
    },
    {
      "inputs": [],
      "name": "give",
      "outputs": [
        {
          "internalType": "bytes32",
          "name": "",
          "type": "bytes32"
        }
      ],
      "stateMutability": "view",
      "type": "function"
    }
  ],
  "bytecode": {
    "object": "0x608060405234801561001057600080fd5b5061011b806100206000396000f3fe6080604052348015600f57600080fd5b506004361060505760003560e01c80630dbe671f1460555780630e230c2414606f578063234674c71460745780639e96a23a14607a578063b42dfa0d146080575b600080fd5b605d60005481565b60405190815260200160405180910390f35b43605d565b4340605d565b605d608a565b608843600055565b005b60008054431160df5760405162461bcd60e51b815260206004820152601a60248201527f7761697420666f72206d6178206f66203132207365636f6e6473000000000000604482015260640160405180910390fd5b5043409056fea26469706673582212201b7c2a24361b673948cd812533c0995d99e41074aa6073e28d975b22d9c5139b64736f6c634300080d0033",
    "linkReferences": {}
  },
  "methodIdentifiers": {
    "a()": "0dbe671f",
    "curhash()": "234674c7",
    "curnum()": "0e230c24",
    "gen()": "b42dfa0d",
    "give()": "9e96a23a"
  },
  "id": 8
}